:1000000074C098C097C096C095C094C093C092C069
:1000100091C090C08FC0AFC58DC08CC08BC08AC04E
:1000200089C088C087C086C085C084C072C54CC5E1
:1000300081C080C07FC07EC07DC0E7C501020408CA
:1000400010204080040201082C00566F6C74616718
:1000500065733A20005344494F00535049004465AA
:100060006661756C74204D6F6465200049324320D1
:1000700041646472657373203078002E00466972A3
:100080006D776172652076657273696F6E3A2000D4
:1000900042616420454550524F4D20646174612097
:1000A000776173206465746563746564206F6E2086
:1000B00073746172742D75702E20454550524F4DEA
:1000C000207265696E697469616C697A656400445F
:1000D00075616C2D506F7274206D6963726F53443B
:1000E00020536869656C6400140711241FBECFEFAC
:1000F000D2E0DEBFCDBF11E0A0E0B1E0E6E0F8E184
:1001000002C005900D92A033B107D9F721E0A0E31A
:10011000B1E001C01D92A13DB207E1F710E0C5E7D3
:10012000D0E003C02197FE0166DBC437D107D1F7C9
:10013000C7D667CB65CFCF93DF9300D01F92CDB7E3
:10014000DEB71B828B81811112C01A8219828981CC
:100150009A818A3C910538F4000089819A81019640
:100160009A838983F4CF8B818F5F8B83EBCF0F9042
:100170000F900F90DF91CF910895382FECECF1E0C4
:1001800090E08FEF41E3931769F02191822728E0F7
:1001900087FF06C0880F84272150D1F79F5FF3CFD8
:1001A000880FFACF0895CF92DF92EF92FF920F93CC
:1001B0001F93CF93DF936C01EB017B01E40EF51EDF
:1001C00010E000E0CE15DF0561F06991D601ED91F8
:1001D000FC910190F081E02DC6010995080F191FCF
:1001E000F1CFC801DF91CF911F910F91FF90EF9058
:1001F000DF90CF900895FC01538D448D252F30E082
:10020000842F90E0821B930B541710F00F960895E3
:1002100001970895FC01918D828D981761F0A28D50
:10022000AE0FBF2FB11D5D968C91928D9F5F9F7019
:10023000928F90E008958FEF9FEF0895FC01918DCC
:10024000828D981731F0828DE80FF11D858D90E039
:1002500008958FEF9FEF0895FC01918D228D892FD6
:1002600090E04096821B91098F7099270895FC01B8
:10027000A48DA80FB92FB11D9D962C91848D90E06F
:1002800001968F709927848FA689B7892C93A089AE
:10029000B1898C91837080648C93938D848D981335
:1002A00006C00288F389E02D80818F7D80830895C8
:1002B000EF92FF920F931F93CF93DF93EC0181E0B6
:1002C000888F9B8D8C8D98131AC0E889F98980815D
:1002D00085FF15C09FB7F894EE89FF896083E88990
:1002E000F98980818370806480839FBF81E090E082
:1002F000DF91CF911F910F91FF90EF900895F62E0F
:100300000B8D10E00F5F1F4F0F701127E02E8C8DAB
:100310008E110BC00FB607FCFACFE889F9898081EE
:1003200085FFF5CFCE01A3DFF2CFEB8DEC0FFD2FD4
:10033000F11DF5A69FB7F8940B8FEA89FB898081A0
:100340008062D2CFCF93DF936DE08BE391E0B0DF9B
:10035000EC016AE08BE391E0ABDF8C0F9D1FDF9136
:10036000CF9108950F931F93CF93DF938C01D0E02B
:10037000C0E0F80164910F5F1F4F662331F08BE3FB
:1003800091E096DFC80FD91FF4CFCE01DF91CF9156
:100390001F910F910895CF93DF93E4DFEC01D2DF3B
:1003A0008C0F9D1FDF91CF910895CF93DF93EC01C8
:1003B000888D8823B1F0AA89BB89E889F9898C9155
:1003C00085FD03C0808186FD0CC00FB607FCF7CF0A
:1003D0008C9185FFF2CF808185FFEDCFCE0147DF85
:1003E000EACFDF91CF910895CF93DF93E82FF0E02C
:1003F000E45CFF4FE491883078F4833019F48FB5D2
:100400008F7C8FBDCBE3D0E0A3E6B0E010C0F894C2
:100410008881E82BE88314C0883029F48091CA00D1
:100420008F738093CA00C8E3D0E0A2E6B0E09E2FAD
:1004300090952FB76111EBCFF89488818923888339
:100440008C9189238C932FBFDF91CF910895CF9307
:10045000DF93E82FF0E0E45CFF4FE49128E330E025
:10046000A7E3B0E0C2E6D0E0883030F42BE330E020
:10047000AAE3B0E0C3E6D0E08E2F8095611110C0F2
:100480004FB7F8949C9198239C93F90190819823FD
:1004900090839881892388834FBFDF91CF910895FE
:1004A0002FB7F8949881892388838C91E82BEC935B
:1004B0002FBFF3CF28B1909139019295990F907E7B
:1004C0002F71922B98B999B1907C892B89B92E9A6A
:1004D0002E99FECF86B197B108953FB7F8948091D9
:1004E000350190913601A0913701B091380122B7C2
:1004F00008B600FE05C02F3F19F00196A11DB11DE1
:100500003FBFBA2FA92F982F8827BC01CD01620FBA
:10051000711D811D911D44E0660F771F881F991F73
:100520004A95D1F70895CF92DF92EF92FF92CF9341
:10053000DF936B017C01D1DFEB01CFDF6C1B7D0B07
:10054000683E7340A0F0C114D104E104F10439F411
:10055000DF91CF91FF90EF90DF90CF90089581E0F1
:10056000C81AD108E108F108C851DC4FE6CFC11420
:10057000D104E104F10409F7EBCFCF93DF93DC0161
:100580001C96ED91FC9126A137A12032310510F582
:10059000A6A1B7A1C6A1D7A120E230E02A1B3B0B40
:1005A0004217530708F49A01DB01EC0FFD1FB90154
:1005B0006E0F7F1FE617F70719F04D914193FACFA1
:1005C000DC011C96ED91FC9186A197A1280F391FA3
:1005D00037A326A3DF91CF910895DC011C96ED91FE
:1005E000FC9186A197A1809768F486A197A19C01B0
:1005F0002F5F3F4F37A326A3E80FF91F608381E0E9
:1006000090E0089590E080E008950895DC011C9644
:10061000ED91FC9120A131A182A193A12817390766
:1006200038F480A191A1E80FF91F808190E008952E
:100630008FEF9FEF0895DC011C96ED91FC9120A1B6
:1006400031A182A193A12817390760F480A191A15B
:100650009C012F5F3F4F31A320A3E80FF91F80813A
:1006600090E008958FEF9FEF0895DC011C96ED91C7
:10067000FC9182A193A120A131A1821B930B08952B
:100680008091BA01813079F030F0823089F08FEFBB
:100690008093BA0108958FEF8093BA016091CE01E3
:1006A0008BEA91E09ACF8FEF8093BA0160E1F8CFA7
:1006B0008FEF8093BA016091CF01F2CF0F931F9318
:1006C000CF93DF93181619066CF48C018BEA91E036
:1006D000B2DF8093BA01C1E0D0E00130110539F4F6
:1006E0000093CB01DF91CF911F910F9108958BEA79
:1006F00091E0A1DFFE01E754FE4F81832196C017F0
:10070000D1071CF4C031D10591F7C754DE4F1982CF
:10071000E7CF60E083E068DE62E370E080E090E0D5
:1007200002DF60E08AE060DE62E370E080E090E09B
:10073000FADE61E080E058DE62E370E080E090E0A5
:10074000F2CE60E080E050DE6AEF70E080E090E0A2
:10075000EADE60E08AE048DE64E670E080E090E097
:10076000E2DE61E083E040DE64E670E080E090E09D
:10077000DACE60E080E038DE6AEF70E080E090E0A2
:10078000D2DE60E083E030DE64E670E080E090E09E
:10079000CADE61E08AE028DE64E670E080E090E096
:1007A000C2CEE091B701F091B8018091CE01880FDF
:1007B0008093A2001092A1008FEF80A78CEB809312
:1007C000A50081E08093B9018EE593E096A785A707
:1007D00080E493E090AB87A70895CF93DF93EB017C
:1007E000A2D58883CE01DF91CF910895FC010190BD
:1007F0000020E9F73197AF01481B590BBC018BE38F
:1008000091E0D1CC8F929F92AF92BF92EF92FF92E4
:100810000F931F93CF93DF93CDB7DEB7A1970FB69A
:10082000F894DEBF0FBECDBF162F042F19A24230A1
:1008300008F40AE07E0121E2E20EF11C802E912CE8
:10084000B12CA12C612FA5019401B3D7802F622F69
:1008500080D5181B1A3014F5105DF70112937F0133
:10086000122F732FCA01232B242B252B59F790E02D
:1008700080E0309711F0CF01B9DFA1960FB6F89460
:10088000DEBF0FBECDBFDF91CF911F910F91FF90C3
:10089000EF90BF90AF909F908F900895195CDDCF3F
:1008A000CF92DF92EF92FF92CF93DF9397FF19C021
:1008B0006B017C016DE28BE391E0FADCEC016627D1
:1008C0007727CB016C197D098E099F094AE09ADFD1
:1008D0008C0F9D1FDF91CF91FF90EF90DF90CF9015
:1008E00008954AE0DF91CF91FF90EF90DF90CF9095
:1008F00089CF4F925F926F927F928F929F92AF9229
:10090000BF92CF92DF92EF92FF920F931F93CF93FC
:100910006B017C01742EAC019B0147D7882391F0B9
:1009200082E291E0CF911F910F91FF90EF90DF90C5
:10093000CF90BF90AF909F908F907F906F905F907F
:100940004F9054CF46015701E894B7F82FEF3FEF8F
:100950004FE75FE7C501B40128D781110CC02FEF25
:100960003FEF4FE75FE7C501B40161D518161CF4EE
:1009700086E291E0D7CF2FEF3FEF4FE75FE4C7016B
:10098000B601A4D618161CF48AE291E0CBCF2FEF63
:100990003FEF4FE75FECC701B60149D587FDF4CFC4
:1009A00020E030E0A901C701B60141D510E000E028
:1009B00087FF09C06DE28BE391E07ADC8C01F7FAE6
:1009C000F094F7F8F094C0E060E070E080E09FE31E
:1009D0007C1639F020E030E040E251E42CD5CF5FC6
:1009E000F7CFA7019601BFD42B013C0191D54B0154
:1009F0005C014AE007DF7C01E00EF11ECC2379F1B7
:100A0000C501B401B1D59B01AC01C301B201AAD4A7
:100A10004B015C018EE291E0E9DEE80EF91EC15067
:100A2000F0F020E030E040E251E4C501B40152D6DC
:100A30002B013C0168D54B01770FAA08BB08C50103
:100A4000B4012EDFE80EF91EC501B4018FD59B015C
:100A5000AC01C301B20186D44B015C01E0CFC701F8
:100A6000CF911F910F91FF90EF90DF90CF90BF90AB
:100A7000AF909F908F907F906F905F904F90089570
:100A8000FF920F931F93CF93DF9385E08093CC0168
:100A900084E073DB8093D0010CEC11E0D0E0C0E087
:100AA000F801F1908F01CE013ED4F81619F06F2DA8
:100AB000CE0141D42196C530D10591F7DF91CF9178
:100AC0001F910F91FF9008951F920F920FB60F92F2
:100AD00011242F933F934F935F936F937F938F9343
:100AE0009F93AF93BF93EF93FF938BE391E0BFDBB3
:100AF000FF91EF91BF91AF919F918F917F916F91F6
:100B00005F914F913F912F910F900FBE0F901F90CB
:100B100018951F920F920FB60F9211242F938F9357
:100B20009F93EF93FF93E0914B01F0914C018081F3
:100B3000E0915101F091520182FD1BC090818091A2
:100B400054018F5F8F7020915501821741F0E09121
:100B50005401F0E0E55CFE4F958F80935401FF91C6
:100B6000EF919F918F912F910F900FBE0F901F903B
:100B700018958081F4CF1F920F920FB60F92112417
:100B80002F933F938F939F93AF93BF9380913101A6
:100B900090913201A0913301B09134013091300134
:100BA0002CE0230F2D3768F12FE8230F0596A11DA8
:100BB000B11D209330018093310190933201A093B5
:100BC0003301B09334018091350190913601A091A9
:100BD0003701B09138010196A11DB11D80933501F7
:100BE00090933601A0933701B0933801BF91AF9134
:100BF0009F918F913F912F910F900FBE0F901F905B
:100C000018950496A11DB11DD4CF1F920F920FB657
:100C10000F9211242F933F934F935F936F937F9382
:100C20008F939F93AF93BF93CF93EF93FF93C09115
:100C3000A3008C2F8C7019F18FEF8093A00180910D
:100C4000A1019091A2019F779093A2018093A101AD
:100C50008091A300846C8093A300FF91EF91CF91CA
:100C6000BF91AF919F918F917F916F915F914F91C4
:100C70003F912F910F900FBE0F901F901895C6FDBA
:100C800028C08091A1019091A20197FD22C0C7FFC9
:100C90006FC0C1FFAFC020919C0130919D01809138
:100CA0009E0190919F012817390708F0A1C08091FB
:100CB0009C0190919D019C012F5F3F4F30939D01BE
:100CC00020939C0188589E4FFC0180818093A00056
:100CD0004FC0C0FF66C08091A1019091A20197FF13
:100CE00029C08091A1019091A2012091A000969528
:100CF000982F88279795879588279370822B9093B4
:100D0000A2018093A101E091A301F091A401309789
:100D100089F110929901109298016091A00180913F
:100D2000A1019091A2010995811124C087E08093CF
:100D3000A40093CF8091A00090E09093A2018093B3
:100D4000A1018091A0018F5F8093A0018091A101FA
:100D50009091A201897F9927803F9105A1F680910A
:100D6000A1019091A20190689093A2018093A101AA
:100D700083E0DDCFC1FF10C010929F0110929E0151
:100D8000E091A701F091A801309709F00995109220
:100D90009D0110929C01ECCF10929B0110929A0140
:100DA000E7CFC1FF15C0E091A901F091AA013097EA
:100DB00009F009958FEF8093A0018091A101909196
:100DC000A2019F779093A2018093A10180E443CF79
:100DD000E091A501F091A601309761F3109299017D
:100DE0001092980180919A0190919B010995E2CF10
:100DF00082E09DCF80919A0190919B01809790F421
:100E000080919A0190919B019C012F5F3F4F3093FD
:100E10009B0120939A012091A00088589E4FFC01CD
:100E20002083A6CF86E083CFEBE3F1E0138212822A
:100E300088EE93E0A0E0B0E084839583A683B78337
:100E400024E031E03183208322E830E035872487B5
:100E500021E830E03787268726E830E0318B208B89
:100E600025E830E0338B228B24E830E0358B248B6F
:100E700020E830E0378B268B118E128E138E148E65
:100E8000EBEAF1E01382128284839583A683B78311
:100E900086E191E09183808388E791E0958784875C
:100EA0001092B901ECECF1E0108280E1818381E5E0
:100EB00082831382EAEBF1E08FEF8083118A089539
:100EC000CF93DF9300D0CDB7DEB718ED109371004C
:100ED00091E090937300789480B7836080BF83B76C
:100EE000877F83BF83B7887F836083BF89B7816033
:100EF00089BF8091C900887F8093C9008091CA0012
:100F00008C7F81608093CA008091C900877E809326
:100F1000C9008091C900887F83608093C9008EB525
:100F2000887F8EBD8FB58C7F81608FBD8EB5877EAB
:100F30008EBD8EB5887F83608EBD80E18093670013
:100F400084EA809368008CEF8093660085B1887F87
:100F5000856085B92F9AF89410937100909373006F
:100F6000789460E089E073DA60E08AE03DDA61E07D
:100F70008AE06DDA60E08AE037DA60E083E034DA54
:100F800061E083E064DA60E083E02EDA61E080E033
:100F90002BDA61E080E05BDA61E080E025DAF8944A
:100FA0001093710011BC78941A82BE016E5F7F4F5E
:100FB00090E080E012DC1A811982BE016F5F7F4FE2
:100FC00081E090E00ADC8981803121F4FF24F394F0
:100FD000153009F0F12C5CECC52E51E0D52E10E057
:100FE00000E0C801A0D1F60181936F010F5F1F4F90
:100FF00005301105B1F78091CC018150BED8909198
:10100000D001891303C010E0F1100CC01092CC0184
:1010100080E18093CD0181E58093CE011092CF01D4
:101020002FDD11E0E0914B01F0914C0182E08083D3
:10103000E0914701F09148011082E0914901F0915F
:101040004A0183E3808310925301E0914F01F091B4
:10105000500186E08083E0914D01F0914E01808146
:1010600080618083E0914D01F0914E018081886024
:101070008083E0914D01F0914E01808180688083F2
:10108000E0914D01F0914E0180818F7D80838FEC46
:1010900090E081D9112319F080E990E063D98DE7C0
:1010A00090E060D96091CD0170E044E0759567955E
:1010B0004A95E1F7072E000C880B990BF1DB8BE7C3
:1010C00090E050D96091CD016F7070E090E080E0C9
:1010D000E7DB38D98CE690E045D96091CE0170E02D
:1010E00090E080E040E18EDB2DD98EE590E03AD9AA
:1010F0008091CF0181118CC08AE590E04CD964EFDA
:1011000071E080E090E00FDA1092390188E8D2D9DE
:1011100038E0F32E10E000E088E8CCD9080F191F62
:101120000AD8FA94F110F8CF93E0169507959A959E
:10113000E1F7B80190E080E017D220E030EC4FE713
:1011400054E479D123E333E343E550E4C3D29B0174
:10115000AC0109D16B017C0187E8ACD928E0B22E43
:1011600010E000E087E8A6D9080F191FE4D7BA9469
:10117000B110F8CF83E0169507958A95E1F7B8018D
:1011800090E080E0F1D120E030EC4FE754E453D11F
:1011900023E333E343E550E49DD29B01AC01E3D06C
:1011A0004B015C018AE490E0DDD842E0C701B60162
:1011B000A0DB88E490E0D6D842E0C501B40199DB19
:1011C000C1D820E030E040E850E4C701B6017ED24B
:1011D00018160CF52DEC3CEC4CE250E4C501B401C2
:1011E00026D187FF18C0ADDA81E0DBDA1FEF01E31B
:1011F0008091CB01882309F44CC08091BA018230E0
:1012000009F468C008F58823B1F11092CB0141C000
:1012100085E590E073CF20E030E040E850E4C7017E
:10122000B60105D187FF0BC02DEC3CEC4CE250E43D
:10123000C501B4014BD2181614F49BDAD5CF8091B6
:10124000CF018111D0CFF9CF843009F45BC008F40D
:101250004EC08530D1F61093BA018091CB01109227
:10126000CB018130B1F455DA64EF71E080E090E0B9
:101270005AD967DA0EC08091CB011092CB0182302F
:1012800041F48091BB018F778093CE01F9DB80E040
:1012900088DA80913A01882309F4AACF3ADA95B125
:1012A0002F982AB15398579A3CB16398679A409106
:1012B0007000809170008D658093700085B705BFC8
:1012C000889585BF409370003CB92AB995B91092B2
:1012D0003A018ECF8091CB011092CB018230C9F6BA
:1012E0008091BB0181708093CF01CADBD2CF109374
:1012F000BA018091CB011092CB01813051F68093DD
:101300003A01C7CF1093BA018091CB011092CB0163
:10131000813009F0BECFFDD964EF71E080E090E04C
:1013200002D927DAB6CFE199FECF9FBB8EBBE09AF8
:1013300099278DB30895262FE199FECF1CBA9FBB44
:101340008EBB2DBB0FB6F894E29AE19A0FBE0196C0
:101350000895002480FD060E660F11F08695D1F7E2
:10136000802D08955058BB27AA270ED075C166D18D
:1013700030F06BD120F031F49F3F11F41EF45BC1CB
:101380000EF4E095E7FB51C1E92F77D180F3BA174E
:10139000620773078407950718F071F49EF58FC1F3
:1013A0000EF4E0950B2EBA2FA02D0B01B901900180
:1013B0000C01CA01A0011124FF27591B99F0593FC4
:1013C00050F4503E68F11A16F040A22F232F342F0C
:1013D0004427585FF3CF469537952795A795F0405A
:1013E0005395C9F77EF41F16BA0B620B730B840B6F
:1013F000BAF09150A1F0FF0FBB1F661F771F881F27
:10140000C2F70EC0BA0F621F731F841F48F487957E
:1014100077956795B795F7959E3F08F0B3CF93956D
:10142000880F08F09927EE0F979587950895D9D0E2
:1014300008F481E008950CD00FC107D140F0FED030
:1014400030F021F45F3F19F0F0C0511139C1F3C001
:1014500014D198F39923C9F35523B1F3951B550B78
:10146000BB27AA2762177307840738F09F5F5F4F77
:10147000220F331F441FAA1FA9F333D00E2E3AF0B8
:10148000E0E830D091505040E695001CCAF729D0D2
:10149000FE2F27D0660F771F881FBB1F2617370721
:1014A0004807AB07B0E809F0BB0B802DBF01FF2751
:1014B00093585F4F2AF09E3F510568F0B6C000C1B7
:1014C0005F3FECF3983EDCF3869577956795B7958B
:1014D000F7959F5FC9F7880F911D9695879597F9A6
:1014E0000895E1E0660F771F881FBB1F621773071F
:1014F0008407BA0720F0621B730B840BBA0BEE1F34
:1015000088F7E095089504D06894B111D9C0089582
:10151000BCD088F09F5790F0B92F9927B751A0F011
:10152000D1F0660F771F881F991F1AF0BA95C9F777
:1015300012C0B13081F0C3D0B1E00895C0C0672FB0
:10154000782F8827B85F39F0B93FCCF38695779527
:101550006795B395D9F73EF4909580957095619510
:101560007F4F8F4F9F4F0895E89409C097FB3EF43B
:1015700090958095709561957F4F8F4F9F4F9923E0
:10158000A9F0F92F96E9BB279395F695879577955E
:101590006795B795F111F8CFFAF4BB0F11F460FF1E
:1015A0001BC06F5F7F4F8F4F9F4F16C0882311F076
:1015B00096E911C0772321F09EE8872F762F05C08A
:1015C000662371F096E8862F70E060E02AF09A9525
:1015D000660F771F881FDAF7880F9695879597F91A
:1015E0000895990F0008550FAA0BE0E8FEEF1616B4
:1015F0001706E807F907C0F012161306E407F50707
:1016000098F0621B730B840B950B39F40A2661F07A
:10161000232B242B252B21F408950A2609F4A1401D
:10162000A6958FEF811D811D089597F99F6780E82A
:1016300070E060E008959FEF80EC089500240A9424
:101640001616170618060906089500240A9412169D
:101650001306140605060895092E0394000C11F4D0
:10166000882352F0BB0F40F4BF2B11F460FF04C07D
:101670006F5F7F4F8F4F9F4F089557FD9058440FD6
:10168000551F59F05F3F71F04795880F97FB991FE1
:1016900061F09F3F79F0879508951216130614069E
:1016A000551FF2CF4695F1DF08C01616170618062B
:1016B000991FF1CF86957105610508940895E89406
:1016C000BB2766277727CB0197F908958ADF08F4AF
:1016D0008FEF08950AD0C0CFB1DF28F0B6DF18F041
:1016E000952309F0A2CFA7CFEBCFC7DFA8F39923AB
:1016F000D9F35523C9F3950F50E0551FAA27EE27BC
:10170000FF27BB2700240894679520F4E20FF31FFE
:10171000B41F0A1E220F331F441FAA1F6695A9F784
:10172000779530F4F30FB41F0A1E121E08F4639568
:10173000330F441FAA1F221F769599F7879520F42F
:10174000B40F0A1E121E631F440FAA1F221F331F4D
:101750008695A9F7862F712D602D11249F57504033
:101760008AF0E1F088234AF0EE0FFF1FBB1F661FCF
:10177000771F881F91505040A9F79E3F510570F088
:1017800054CF9ECF5F3FECF3983EDCF38695779580
:101790006795B795F795E7959F5FC1F7FE2B880F83
:1017A000911D9695879597F908951BDF880B990BE6
:1017B0000895A1E21A2EAA1BBB1BFD010DC0AA1F92
:1017C000BB1FEE1FFF1FA217B307E407F50720F0AA
:1017D000A21BB30BE40BF50B661F771F881F991F25
:1017E0001A9469F760957095809590959B01AC016E
:1017F000BD01CF010895EE0FFF1F0590F491E02D7C
:061800000994F894FFCFEB
:10180600000000005801D3002C010A011E01D50179
:10181600FB0000000000ED02BD0235031B030603BA
:1018260005036E616E00696E66006F7666002E00B7
:00000001FF
