:1000000074C098C097C096C052C794C093C092C0A5
:1000100091C090C08FC0F2C58DC08CC08BC08AC00B
:1000200089C088C087C086C085C084C0B5C58FC55B
:1000300081C080C07FC07EC07DC02AC60102040886
:1000400010204080040201082C00566F6C74616718
:1000500065733A20005344494F00535049004465AA
:100060006661756C74204D6F6465200049324320D1
:1000700041646472657373203078002E00466972A3
:100080006D776172652076657273696F6E200042CC
:10009000616420454550524F4D2064617461207762
:1000A0006173206465746563746564206F6E20738A
:1000B000746172742D75702E20454550524F4D203D
:1000C0007265696E697469616C697A65640044750A
:1000D000616C2D506F7274206D6963726F53442090
:1000E000536869656C640000690711241FBECFEF77
:1000F000D2E0DEBFCDBF11E0A0E0B1E0ECECF8E172
:1001000002C005900D92A033B107D9F721E0A0E31A
:10011000B1E001C01D92A23DB207E1F710E0C5E7D2
:10012000D0E003C02197FE01C9DBC437D107D1F766
:100130001CD7CACB65CFCF93DF9300D01F92CDB72A
:10014000DEB71B828B81811112C01A8219828981CC
:100150009A818A3C910538F4000089819A81019640
:100160009A838983F4CF8B818F5F8B83EBCF0F9042
:100170000F900F90DF91CF910895382FEDECF1E0C3
:1001800090E08FEF41E3931769F02191822728E0F7
:1001900087FF06C0880F84272150D1F79F5FF3CFD8
:1001A000880FFACF0895CF92DF92EF92FF920F93CC
:1001B0001F93CF93DF936C01EB017B01E40EF51EDF
:1001C00010E000E0CE15DF0561F06991D601ED91F8
:1001D000FC910190F081E02DC6010995080F191FCF
:1001E000F1CFC801DF91CF911F910F91FF90EF9058
:1001F000DF90CF900895FC01538D448D252F30E082
:10020000842F90E0821B930B541710F00F960895E3
:1002100001970895FC01918D828D981761F0A28D50
:10022000AE0FBF2FB11D5D968C91928D9F5F9F7019
:10023000928F90E008958FEF9FEF0895FC01918DCC
:10024000828D981731F0828DE80FF11D858D90E039
:1002500008958FEF9FEF0895FC01918D228D892FD6
:1002600090E04096821B91098F7099270895FC01B8
:10027000A48DA80FB92FB11D9D962C91848D90E06F
:1002800001968F709927848FA689B7892C93A089AE
:10029000B1898C91837080648C93938D848D981335
:1002A00006C00288F389E02D80818F7D80830895C8
:1002B000EF92FF920F931F93CF93DF93EC0181E0B6
:1002C000888F9B8D8C8D98131AC0E889F98980815D
:1002D00085FF15C09FB7F894EE89FF896083E88990
:1002E000F98980818370806480839FBF81E090E082
:1002F000DF91CF911F910F91FF90EF900895F62E0F
:100300000B8D10E00F5F1F4F0F701127E02E8C8DAB
:100310008E110BC00FB607FCFACFE889F9898081EE
:1003200085FFF5CFCE01A3DFF2CFEB8DEC0FFD2FD4
:10033000F11DF5A69FB7F8940B8FEA89FB898081A0
:100340008062D2CFCF93DF936DE08CE391E0B0DF9A
:10035000EC016AE08CE391E0ABDF8C0F9D1FDF9135
:10036000CF9108950F931F93CF93DF938C01D0E02B
:10037000C0E0F80164910F5F1F4F662331F08CE3FA
:1003800091E096DFC80FD91FF4CFCE01DF91CF9156
:100390001F910F910895CF93DF93E4DFEC01D2DF3B
:1003A0008C0F9D1FDF91CF910895CF93DF93EC01C8
:1003B000888D8823B1F0AA89BB89E889F9898C9155
:1003C00085FD03C0808186FD0CC00FB607FCF7CF0A
:1003D0008C9185FFF2CF808185FFEDCFCE0147DF85
:1003E000EACFDF91CF910895CF93DF93E82FF0E02C
:1003F000E45CFF4FE491883078F4833019F48FB5D2
:100400008F7C8FBDCBE3D0E0A3E6B0E010C0F894C2
:100410008881E82BE88314C0883029F48091CA00D1
:100420008F738093CA00C8E3D0E0A2E6B0E09E2FAD
:1004300090952FB76111EBCFF89488818923888339
:100440008C9189238C932FBFDF91CF910895CF9307
:10045000DF93E82FF0E0E45CFF4FE4912BE330E022
:10046000AAE3B0E0C3E6D0E0883030F028E330E023
:10047000A7E3B0E0C2E6D0E08E2F8095611110C0F6
:100480004FB7F8949C9198239C93D9019C91982301
:100490009C939881892388834FBFDF91CF910895E2
:1004A000623069F44FB7F8949C9189238C93D901F9
:1004B0008C918E2B8C938881E82BE883EDCF2FB71E
:1004C000F8949881892388838C91E82BEC932FBF33
:1004D000E4CF28B190913A019295990F907E2F71B7
:1004E000922B98B999B1907C892B89B92E9A2E9923
:1004F000FECF86B197B108953FB7F8948091360149
:1005000090913701A0913801B091390122B708B616
:1005100000FE05C02F3F19F00196A11DB11D3FBF80
:10052000BA2FA92F982F8827BC01CD01620F711D0A
:10053000811D911D44E0660F771F881F991F4A9502
:10054000D1F70895CF92DF92EF92FF92CF93DF938E
:100550006B017C01D1DFEB01CFDF6C1B7D0B683EB3
:100560007340A0F0C114D104E104F10439F4DF9127
:10057000CF91FF90EF90DF90CF90089581E0C81A5F
:10058000D108E108F108C851DC4FE6CFC114D1040D
:10059000E104F10409F7EBCFCF93DF93DC011C9664
:1005A000ED91FC9126A137A12032310510F5A6A1CD
:1005B000B7A1C6A1D7A120E230E02A1B3B0B42170E
:1005C000530708F49A01DB01EC0FFD1FB9016E0F10
:1005D0007F1FE617F70719F04D914193FACFDC0121
:1005E0001C96ED91FC9186A197A1280F391F37A386
:1005F00026A3DF91CF910895DC011C96ED91FC912B
:1006000086A197A1809768F486A197A19C012F5F8E
:100610003F4F37A326A3E80FF91F608381E090E0E6
:10062000089590E080E008950895DC011C96ED9116
:10063000FC9120A131A182A193A12817390738F498
:1006400080A191A1E80FF91F808190E008958FEFBC
:100650009FEF0895DC011C96ED91FC9120A131A142
:1006600082A193A12817390760F480A191A19C0170
:100670002F5F3F4F31A320A3E80FF91F808190E047
:1006800008958FEF9FEF0895DC011C96ED91FC918A
:1006900082A193A120A131A1821B930B0895809187
:1006A000BB01813079F030F0823089F08FEF809398
:1006B000BB0108958FEF8093BB016091CF018CEA5D
:1006C00091E09ACF8FEF8093BB0161E1F8CF8FEF7C
:1006D0008093BB016091D001F2CF0F931F93CF9312
:1006E000DF938C018091CC01811126C01016110678
:1006F00064F48CEA91E0AEDF8093BB01C1E0D0E00E
:100700000130110539F40093CC01DF91CF911F9195
:100710000F9108958CEA91E09DDFFE01E654FE4FB3
:1007200081832196C017D1071CF4C031D10591F700
:10073000C654DE4F1982E7CFD0E0C0E01016110694
:1007400024F78CEA91E086DF21960C171D07E9F269
:10075000C031D105B1F7D9CFCF93DF931F92CDB779
:10076000DEB7F8948DE4898388ED809371008981E8
:1007700081BD78940F90DF91CF91089560E083E080
:1007800033DE62E370E080E090E0DCDE60E08AE08F
:100790002BDE62E370E080E090E0D4DE62E080E097
:1007A00056DE6AE070E080E090E0CCDE61E080E060
:1007B0001BDE61E080E04BDE61E080E015DE68E298
:1007C00070E080E090E0BECE60E080E00DDE6AEF99
:1007D00070E080E090E0B6DE60E08AE005DE64E68E
:1007E00070E080E090E0AEDE61E083E0FDDD64E695
:1007F00070E080E090E0A6CE60E080E0F5DD6AEF9A
:1008000070E080E090E09EDE60E083E0EDDD64E695
:1008100070E080E090E096DE61E08AE0E5DD64E68D
:1008200070E080E090E08ECEE091B801F091B901E7
:100830008091CF01880F8093A2001092A1008FEFCA
:1008400080A78CEB8093A50081E08093BA018DE6B0
:1008500093E096A785A78FE493E090AB87A70895D0
:10086000CF93DF93EB01C2D58883CE01DF91CF9187
:100870000895FC0101900020E9F73197AF01481B72
:10088000590BBC018CE391E08ECC8F929F92AF927A
:10089000BF92EF92FF920F931F93CF93DF93CDB749
:1008A000DEB7A1970FB6F894DEBF0FBECDBF162FEF
:1008B000042F19A2423008F40AE07E0121E2E20E80
:1008C000F11C802E912CB12CA12C612FA50194013B
:1008D000D3D7802F622FA0D5181B1A3014F5105DC6
:1008E000F70112937F01122F732FCA01232B242BA0
:1008F000252B59F790E080E0309711F0CF01B9DF58
:10090000A1960FB6F894DEBF0FBECDBFDF91CF9199
:100910001F910F91FF90EF90BF90AF909F908F909D
:100920000895195CDDCFCF92DF92EF92FF92CF93C3
:10093000DF9397FF19C06B017C016DE28CE391E0BE
:10094000B7DCEC0166277727CB016C197D098E098E
:100950009F094AE09ADF8C0F9D1FDF91CF91FF9096
:10096000EF90DF90CF9008954AE0DF91CF91FF9014
:10097000EF90DF90CF9089CF4F925F926F927F92EE
:100980008F929F92AF92BF92CF92DF92EF92FF929F
:100990000F931F93CF936B017C01742EAC019B01CD
:1009A00067D7882391F082E291E0CF911F910F9158
:1009B000FF90EF90DF90CF90BF90AF909F908F907F
:1009C0007F906F905F904F9054CF46015701E8940D
:1009D000B7F82FEF3FEF4FE75FE7C501B40148D706
:1009E00081110CC02FEF3FEF4FE75FE7C501B40166
:1009F00081D518161CF486E291E0D7CF2FEF3FEF98
:100A00004FE75FE4C701B601C4D618161CF48AE2AA
:100A100091E0CBCF2FEF3FEF4FE75FECC701B6017F
:100A200069D587FDF4CF20E030E0A901C701B60108
:100A300061D510E000E087FF09C06DE28CE391E032
:100A400037DC8C01F7FAF094F7F8F094C0E060E03E
:100A500070E080E09FE37C1639F020E030E040E277
:100A600051E44CD5CF5FF7CFA7019601DFD42B011E
:100A70003C01B1D54B015C014AE007DF7C01E00E8F
:100A8000F11ECC2379F1C501B401D1D59B01AC0194
:100A9000C301B201CAD44B015C018EE291E0E9DEF0
:100AA000E80EF91EC150F0F020E030E040E251E4E1
:100AB000C501B40172D62B013C0188D54B01770FDB
:100AC000AA08BB08C501B4012EDFE80EF91EC50156
:100AD000B401AFD59B01AC01C301B201A6D44B0157
:100AE0005C01E0CFC701CF911F910F91FF90EF9074
:100AF000DF90CF90BF90AF909F908F907F906F903E
:100B00005F904F900895FF920F931F93CF93DF93C1
:100B100085E08093CD0184E030DB8093D1010DEC42
:100B200011E0D0E0C0E0F801F1908F01CE015ED479
:100B3000F81619F06F2DCE0161D42196C530D1057C
:100B400091F7DF91CF911F910F91FF9008951F9220
:100B50000F920FB60F9211242F933F934F935F93F1
:100B60006F937F938F939F93AF93BF93EF93FF9375
:100B70008CE391E07CDBFF91EF91BF91AF919F916E
:100B80008F917F916F915F914F913F912F910F9036
:100B90000FBE0F901F9018951F920F920FB60F92D5
:100BA00011242F938F939F93EF93FF93E0914C0128
:100BB000F0914D018081E0915201F091530182FD4D
:100BC0001BC09081809155018F5F8F7020915601DD
:100BD000821741F0E0915501F0E0E45CFE4F958F03
:100BE00080935501FF91EF919F918F912F910F90DD
:100BF0000FBE0F901F9018958081F4CF1F920F9217
:100C00000FB60F9211242F933F938F939F93AF931F
:100C1000BF938091320190913301A0913401B09142
:100C20003501309131012CE0230F2D3768F12FE889
:100C3000230F0596A11DB11D209331018093320130
:100C400090933301A0933401B09335018091360124
:100C500090913701A0913801B09139010196A11D01
:100C6000B11D8093360190933701A0933801B09362
:100C70003901BF91AF919F918F913F912F910F902B
:100C80000FBE0F901F9018950496A11DB11DD4CFD3
:100C90001F920F920FB60F9211242F933F934F93F1
:100CA0005F936F937F938F939F93AF93BF93CF93F4
:100CB000EF93FF93C091A3008C2F8C7019F18FEFED
:100CC0008093A1018091A2019091A3019F779093BD
:100CD000A3018093A2018091A300846C8093A30060
:100CE000FF91EF91CF91BF91AF919F918F917F91A4
:100CF0006F915F914F913F912F910F900FBE0F9089
:100D00001F901895C6FD28C08091A2019091A30163
:100D100097FD22C0C7FF6FC0C1FFAFC020919D01EA
:100D200030919E0180919F019091A0012817390771
:100D300008F0A1C080919D0190919E019C012F5FC0
:100D40003F4F30939E0120939D0187589E4FFC0199
:100D500080818093A0004FC0C0FF66C08091A20137
:100D60009091A30197FF29C08091A2019091A301C6
:100D70002091A0009695982F88279795879588278A
:100D80009370822B9093A3018093A201E091A40120
:100D9000F091A501309789F110929A011092990172
:100DA0006091A1018091A2019091A3010995811107
:100DB00024C087E08093A40093CF8091A00090E0AE
:100DC0009093A3018093A2018091A1018F5F8093F2
:100DD000A1018091A2019091A301897F9927803F71
:100DE0009105A1F68091A2019091A3019068909342
:100DF000A3018093A20183E0DDCFC1FF10C0109258
:100E0000A00110929F01E091A801F091A9013097F3
:100E100009F0099510929E0110929D01ECCF10925D
:100E20009C0110929B01E7CFC1FF15C0E091AA0180
:100E3000F091AB01309709F009958FEF8093A101F4
:100E40008091A2019091A3019F779093A301809339
:100E5000A20180E443CFE091A601F091A701309771
:100E600061F310929A011092990180919B019091E7
:100E70009C010995E2CF82E09DCF80919B019091EA
:100E80009C01809790F480919B0190919C019C0122
:100E90002F5F3F4F30939C0120939B012091A00036
:100EA00087589E4FFC012083A6CF86E083CF1F92F8
:100EB0000F920FB60F9211248F9381B5806481BD7C
:100EC00081E0809330018F910F900FBE0F901F90A3
:100ED0001895ECE3F1E01382128288EE93E0A0E033
:100EE000B0E084839583A683B78324E031E0318327
:100EF000208322E830E03587248721E830E03787F7
:100F0000268726E830E0318B208B25E830E0338BD4
:100F1000228B24E830E0358B248B20E830E0378BBF
:100F2000268B118E128E138E148EECEAF1E0138252
:100F3000128284839583A683B78386E191E09183AF
:100F4000808389E791E0958784871092BA01EDEC60
:100F5000F1E0108281E1818381E582831382EBEBF2
:100F6000F1E08FEF8083118A0895CF93DF9300D053
:100F7000CDB7DEB728ED2093710091E09093730018
:100F8000789480B7836080BF83B7877F83BF83B740
:100F9000887F836083BF89B7816089BF8091C900E2
:100FA000887F8093C9008091CA008C7F8160809384
:100FB000CA008091C900877E8093C9008091C900D2
:100FC000887F83608093C9008EB5887F8EBD8FB582
:100FD0008C7F81608FBD8EB5877E8EBD8EB5887FFC
:100FE00083608EBD80E18093670084EA809368000F
:100FF0008CEF8093660085B1887F856085B92F9AD4
:10100000F8942093710090937300789460E089E0E5
:101010001EDA1BBE60E08AE0E7D961E08AE017DAF9
:1010200060E08AE0E1D960E083E0DED961E083E05E
:101030000EDA60E083E0D8D961E080E0D5D961E0E4
:1010400080E005DA61E080E0CFD9E0914C01F091D9
:101050004D0182E08083E0914801F09149011082C6
:10106000E0914A01F0914B0183E380831092540197
:10107000E0915001F091510186E08083E0914E01B2
:10108000F0914F01808180618083E0914E01F09169
:101090004F01808188608083E0914E01F0914F0183
:1010A000808180688083E0914E01F0914F018081C2
:1010B0008F7D808351DB1A82BE016E5F7F4F90E08F
:1010C00080E0CEDB1A811982BE016F5F7F4F81E025
:1010D00090E0C6DB8981813121F4FF24F39415303F
:1010E00009F0F12C6DECC62E61E0D62E10E000E088
:1010F000C8017CD1F60181936F010F5F1F4F05304E
:101100001105B1F78091CD01815037D89091D1016F
:10111000891303C010E0F1100CC01092CD0181E1E1
:101120008093CE0181E58093CF011092D001EBDC5A
:1011300011E08EEC90E02FD9112319F08FE890E0A8
:101140002AD98DE790E00ED96091CE0170E054E08D
:10115000759567955A95E1F7072E000C880B990B4A
:10116000E2DB8BE790E0FED86091CE016F7070E01B
:1011700090E080E0D8DBE6D88CE690E0F3D8609190
:10118000CF0170E090E080E040E17FDBDBD88EE5CE
:1011900090E0E8D88091D001811195C08AE590E077
:1011A000FAD864EF71E080E090E0CCD910923A0177
:1011B00088E88FD948E0F42E10E000E088E889D96B
:1011C000080F191FB8D7FA94F110F8CF23E016953D
:1011D00007952A95E1F7B80190E080E028D220E059
:1011E00030EC4FE754E48AD123E333E343E550E4A2
:1011F000D4D29B01AC011AD16B017C0187E869D97B
:1012000038E0B32E10E000E087E863D9080F191F1B
:1012100092D7BA94B110F8CF93E0169507959A95A6
:10122000E1F7B80190E080E002D220E030EC4FE737
:1012300054E464D123E333E343E550E4AED29B01AD
:10124000AC01F4D04B015C018AE490E08BD842E021
:10125000C701B60191DB88E490E084D842E0C50183
:10126000B4018ADB6FD820E030E040E850E4C701E9
:10127000B6018FD2181654F52DEC3CEC4CE250E43C
:10128000C501B40137D187FF21C09EDA8FEF80936B
:10129000BB011092CC0110923B0181E0C5DA1FEF37
:1012A00088EDF82E01E38091CC01882309F44CC02D
:1012B0008091BB01823009F46EC008F58823B1F13A
:1012C0001092CC0141C085E590E06ACF20E030E08B
:1012D00040E850E4C701B6010DD187FF0BC02DECEB
:1012E0003CEC4CE250E4C501B40153D2181614F49E
:1012F00083DACCCF8091D0018111C7CFF9CF843070
:1013000009F463C008F455C08530D1F61093BB01D1
:101310008091CC011092CC018130B1F42FDA64EFCE
:1013200071E080E090E00ED94FDA0EC08091CC01E0
:10133000823031F68091BC018F778093CF0110927B
:10134000CC01E1DB80E070DA80913B01882309F475
:10135000AACF14DAF894F092710011BC789495B188
:101360002F982AB15398579A3CB16398679A409145
:101370007000809170008D658093700085B705BF07
:10138000889585BF409370003CB92AB995B9E4D9D6
:1013900010923B0188CF8091CC01823009F090CF30
:1013A0008091BC0181708093D0011092CC01ABDBA5
:1013B000CBCF1093BB018091CC011092CC01813036
:1013C00009F0C2CF80933B01BFCF1093BB01809146
:1013D000CC011092CC01813009F0B6CFCFD964EFA7
:1013E00071E080E090E0AED807DAAECFE199FECFB1
:1013F0009FBB8EBBE09A99278DB30895262FE19964
:10140000FECF1CBA9FBB8EBB2DBB0FB6F894E29AE1
:10141000E19A0FBE01960895002480FD060E660F26
:1014200011F08695D1F7802D08955058BB27AA2733
:101430000ED075C166D130F06BD120F031F49F3FF2
:1014400011F41EF45BC10EF4E095E7FB51C1E92FE6
:1014500077D180F3BA17620773078407950718F0EE
:1014600071F49EF58FC10EF4E0950B2EBA2FA02DCE
:101470000B01B90190010C01CA01A0011124FF2741
:10148000591B99F0593F50F4503E68F11A16F0403C
:10149000A22F232F342F4427585FF3CF469537953B
:1014A0002795A795F0405395C9F77EF41F16BA0B00
:1014B000620B730B840BBAF09150A1F0FF0FBB1FAE
:1014C000661F771F881FC2F70EC0BA0F621F731FF7
:1014D000841F48F4879577956795B795F7959E3F54
:1014E00008F0B3CF9395880F08F09927EE0F9795E2
:1014F00087950895D9D008F481E008950CD00FC1E4
:1015000007D140F0FED030F021F45F3F19F0F0C079
:10151000511139C1F3C014D198F39923C9F355235C
:10152000B1F3951B550BBB27AA27621773078407D6
:1015300038F09F5F5F4F220F331F441FAA1FA9F38C
:1015400033D00E2E3AF0E0E830D091505040E6957E
:10155000001CCAF729D0FE2F27D0660F771F881FDF
:10156000BB1F261737074807AB07B0E809F0BB0BCE
:10157000802DBF01FF2793585F4F2AF09E3F5105F2
:1015800068F0B6C000C15F3FECF3983EDCF386958F
:1015900077956795B795F7959F5FC9F7880F911D68
:1015A0009695879597F90895E1E0660F771F881F54
:1015B000BB1F621773078407BA0720F0621B730B07
:1015C000840BBA0BEE1F88F7E095089504D0689459
:1015D000B111D9C00895BCD088F09F5790F0B92FB1
:1015E0009927B751A0F0D1F0660F771F881F991F78
:1015F0001AF0BA95C9F712C0B13081F0C3D0B1E08A
:101600000895C0C0672F782F8827B85F39F0B93F99
:10161000CCF3869577956795B395D9F73EF4909579
:101620008095709561957F4F8F4F9F4F0895E894F7
:1016300009C097FB3EF490958095709561957F4F1A
:101640008F4F9F4F9923A9F0F92F96E9BB279395C8
:10165000F695879577956795B795F111F8CFFAF4D8
:10166000BB0F11F460FF1BC06F5F7F4F8F4F9F4F09
:1016700016C0882311F096E911C0772321F09EE867
:10168000872F762F05C0662371F096E8862F70E0CD
:1016900060E02AF09A95660F771F881FDAF7880FA7
:1016A0009695879597F90895990F0008550FAA0BFD
:1016B000E0E8FEEF16161706E807F907C0F0121665
:1016C0001306E407F50798F0621B730B840B950B68
:1016D00039F40A2661F0232B242B252B21F40895BD
:1016E0000A2609F4A140A6958FEF811D811D08955A
:1016F00097F99F6780E870E060E008959FEF80ECC5
:10170000089500240A941616170618060906089567
:1017100000240A9412161306140605060895092ECD
:101720000394000C11F4882352F0BB0F40F4BF2B3C
:1017300011F460FF04C06F5F7F4F8F4F9F4F08957C
:1017400057FD9058440F551F59F05F3F71F0479572
:10175000880F97FB991F61F09F3F79F08795089557
:10176000121613061406551FF2CF4695F1DF08C076
:10177000161617061806991FF1CF86957105610593
:1017800008940895E894BB2766277727CB0197F93B
:1017900008958ADF08F48FEF08950AD0C0CFB1DF33
:1017A00028F0B6DF18F0952309F0A2CFA7CFEBCF32
:1017B000C7DFA8F39923D9F35523C9F3950F50E058
:1017C000551FAA27EE27FF27BB27002408946795FB
:1017D00020F4E20FF31FB41F0A1E220F331F441F11
:1017E000AA1F6695A9F7779530F4F30FB41F0A1E68
:1017F000121E08F46395330F441FAA1F221F76950B
:1018000099F7879520F4B40F0A1E121E631F440F28
:10181000AA1F221F331F8695A9F7862F712D602DD1
:1018200011249F5750408AF0E1F088234AF0EE0FD0
:10183000FF1FBB1F661F771F881F91505040A9F7DD
:101840009E3F510570F054CF9ECF5F3FECF3983E22
:10185000DCF3869577956795B795F795E7959F5F44
:10186000C1F7FE2B880F911D9695879597F90895DE
:101870001BDF880B990B0895A1E21A2EAA1BBB1B34
:10188000FD010DC0AA1FBB1FEE1FFF1FA217B3074C
:10189000E407F50720F0A21BB30BE40BF50B661F62
:1018A000771F881F991F1A9469F760957095809526
:1018B00090959B01AC01BD01CF010895EE0FFF1F74
:0C18C0000590F491E02D0994F894FFCFFE
:1018CC00000000005801D3002C010A011E01D501B3
:1018DC00FB0000000000FC02CC0244032A031503A9
:1018EC0014036E616E00696E66006F7666002E00E2
:00000001FF
