:1000000024C048C047C046C045C044C043C042C0E9
:1000100041C040C03FC06BC23DC03CC03BC03AC0C5
:1000200039C038C037C036C035C034C033C032C024
:1000300031C030C02FC02EC02DC0A3C201020408A1
:100040001020408004020108D00311241FBECFEF0E
:10005000D2E0DEBFCDBF11E0A0E0B1E0E6E6FFE018
:1000600002C005900D92A031B107D9F721E0A0E1BF
:10007000B1E001C01D92A437B207E1F710E0C5E27C
:10008000D0E003C02197FE0166D7C432D107D1F773
:10009000ABD367C7B5CFCF93DF9300D01F92CDB757
:1000A000DEB71B828B81811112C01A82198289816D
:1000B0009A818A3C910538F4000089819A810196E1
:1000C0009A838983F4CF8B818F5F8B83EBCF0F90E3
:1000D0000F900F90DF91CF910895382FEFE6F1E068
:1000E00090E08FEF41E3931769F02191822728E098
:1000F00087FF06C0880F84272150D1F79F5FF3CF79
:10010000880FFACF0895CF93DF93E82FF0E0E45CF7
:10011000FF4FE491A7E3B0E0C2E6D0E0883020F4DE
:10012000AAE3B0E0C3E6D0E09FB7F89428818E2F11
:100130008095822388838C91E82BEC939FBFDF917D
:10014000CF910895CF93DF93E82FF0E0E45CFF4F69
:10015000E491883078F4833019F48FB58F7C8FBDAB
:10016000CBE3D0E0A3E6B0E010C0F8948881E82BA0
:10017000E88314C0883029F48091CA008F7380937B
:10018000CA00C8E3D0E0A2E6B0E09E2F90952FB75A
:100190006111EBCFF8948881892388838C9189231E
:1001A0008C932FBFDF91CF91089528B190911901C1
:1001B0009295990F907E2F71922B98B999B1907C5E
:1001C000892B89B92E9A2E99FECF86B197B10895C1
:1001D0003FB7F8948091150190911601A0911701F5
:1001E000B091180122B708B600FE05C02F3F19F0E4
:1001F0000196A11DB11D3FBFBA2FA92F982F8827A7
:10020000BC01CD01620F711D811D911D44E0660F7F
:10021000771F881F991F4A95D1F70895CF92DF92D3
:10022000EF92FF92CF93DF936B017C01D1DFEB0163
:10023000CFDF6C1B7D0B683E7340A0F0C114D1046E
:10024000E104F10439F4DF91CF91FF90EF90DF905A
:10025000CF90089581E0C81AD108E108F108C8518B
:10026000DC4FE6CFC114D104E104F10409F7EBCF70
:10027000CF93DF93DC011C96ED91FC9126A137A171
:100280002032310510F5A6A1B7A1C6A1D7A120E261
:1002900030E02A1B3B0B4217530708F49A01DB019D
:1002A000EC0FFD1FB9016E0F7F1FE617F70719F05E
:1002B0004D914193FACFDC011C96ED91FC9186A102
:1002C00097A1280F391F37A326A3DF91CF91089557
:1002D000DC011C96ED91FC9186A197A1809768F4B2
:1002E00086A197A19C012F5F3F4F37A326A3E80F5C
:1002F000F91F608381E090E0089590E080E0089528
:100300000895DC011C96ED91FC9120A131A182A100
:1003100093A12817390738F480A191A1E80FF91F9C
:10032000808190E008958FEF9FEF0895DC011C9687
:10033000ED91FC9120A131A182A193A12817390749
:1003400060F480A191A19C012F5F3F4F31A320A3B6
:10035000E80FF91F808190E008958FEF9FEF0895D7
:10036000DC011C96ED91FC9182A193A120A131A109
:10037000821B930B089580915D01813079F040F0EC
:10038000823071F08F3F19F08FEF80935D010895F7
:10039000609171018EE491E09BDFF6CF60E1FACFCE
:1003A00060917201F7CF0F931F93CF93DF931816CD
:1003B00019066CF48C018EE491E0B8DF80935D0146
:1003C000C1E0D0E00130110539F400936E01DF91F6
:1003D000CF911F910F9108958EE491E0A7DFFE0168
:1003E000E45AFE4F81832196C017D1071CF4C03117
:1003F000D10591F7C45ADE4F1982E7CF60E080E063
:10040000A1DE64EF71E080E090E008DF60E08AE068
:1004100099DE6AEF70E080E090E000DF61E083E069
:1004200091DE6AEF70E080E090E0F8CE60E080E07E
:1004300089DE64EF71E080E090E0F0DE60E083E070
:1004400081DE6AEF70E080E090E0E8DE61E08AE063
:1004500079DE6AEF70E080E090E0E0CEE0915A0152
:10046000F0915B0180917101880F8093A20010923E
:10047000A1008FEF80A78CEB8093A50081E0809393
:100480005C0183ED91E096A785A78BEB91E090ABA3
:1004900087A70895CF93DF93EB0155D38883CE01CF
:1004A000DF91CF910895FF920F931F93CF93DF9326
:1004B00085E080936F0184E010DE809373010FE686
:1004C00011E0D0E0C0E0F801F1908F01CE013BD304
:1004D000F81619F06F2DCE013ED32196C530D10507
:1004E00091F7DF91CF911F910F91FF9008951F9287
:1004F0000F920FB60F9211242F933F938F939F93D8
:10050000AF93BF938091110190911201A0911301BB
:10051000B0911401309110012CE0230F2D3768F1B8
:100520002FE8230F0596A11DB11D20931001809384
:10053000110190931201A0931301B09314018091C3
:10054000150190911601A0911701B0911801019623
:10055000A11DB11D8093150190931601A093170161
:10056000B0931801BF91AF919F918F913F912F91BF
:100570000F900FBE0F901F9018950496A11DB11DEE
:10058000D4CF1F920F920FB60F9211242F933F9347
:100590004F935F936F937F938F939F93AF93BF938B
:1005A000CF93EF93FF93C091A3008C2F8C7019F120
:1005B0008FEF8093430180914401909145019F7793
:1005C00090934501809344018091A300846C8093B3
:1005D000A300FF91EF91CF91BF91AF919F918F9128
:1005E0007F916F915F914F913F912F910F900FBE2F
:1005F0000F901F901895C6FD28C0809144019091DE
:10060000450197FD22C0C7FF6FC0C1FFAFC0209159
:100610003F013091400180914101909142012817A2
:10062000390708F0A1C080913F01909140019C01E1
:100630002F5F3F4F3093400120933F01855E9E4FD7
:10064000FC0180818093A0004FC0C0FF66C08091F4
:1006500044019091450197FF29C0809144019091F8
:1006600045012091A0009695982F8827979587950A
:1006700088279370822B9093450180934401E091E9
:100680004601F0914701309789F110923C01109298
:100690003B0160914301809144019091450109958E
:1006A000811124C087E08093A40093CF8091A000A3
:1006B00090E09093450180934401809143018F5FC6
:1006C000809343018091440190914501897F99274E
:1006D000803F9105A1F68091440190914501906879
:1006E000909345018093440183E0DDCFC1FF10C0AA
:1006F0001092420110924101E0914A01F0914B01A8
:10070000309709F009951092400110923F01ECCF0B
:1007100010923E0110923D01E7CFC1FF15C0E0915C
:100720004C01F0914D01309709F009958FEF8093BE
:10073000430180914401909145019F779093450139
:100740008093440180E443CFE0914801F091490156
:10075000309761F310923C0110923B0180913D0172
:1007600090913E010995E2CF82E09DCF80913D01BD
:1007700090913E01809790F480913D0190913E01CF
:100780009C012F5F3F4F30933E0120933D0120910C
:10079000A000855E9E4FFC012083A6CF86E083CF1C
:1007A000EEE4F1E01382128288EE93E0A0E0B0E084
:1007B00084839583A683B78384E091E091838083CB
:1007C0008BE191E09587848710925C01EFE6F1E080
:1007D000108280E1818381E582831382EDE5F1E07F
:1007E0008FEF8083118A0895CF93DF9300D0CDB728
:1007F000DEB718ED1093710091E090937300789438
:1008000080B7836080BF83B7877F83BF83B7887FCC
:10081000836083BF89B7816089BF8091C900887F69
:100820008093C9008091CA008C7F81608093CA0048
:100830008091C900877E8093C9008091C900887F1C
:1008400083608093C9008EB5887F8EBD8FB58C7F05
:1008500081608FBD8EB5877E8EBD8EB5887F8360AB
:100860008EBD80E18093670084EA809368008CEFFE
:100870008093660085B1887F856085B92F9AF8944A
:100880001093710090937300789460E08AE05ADCD2
:100890008AE039DC60E08AE055DC60E083E052DC2D
:1008A00083E031DC60E083E04DDC61E080E04ADC45
:1008B00080E029DC61E080E045DCF8941093710071
:1008C00011BC78941A82BE016E5F7F4F90E080E089
:1008D000E1DD1A811982BE016F5F7F4F81E090E0F8
:1008E000D9DD8981803121F4FF24F394153009F09A
:1008F000F12C4FE6C42E41E0D42E10E000E0C801F8
:1009000022D1F60181936F010F5F1F4F0530110552
:10091000B1F780916F018150E0DB909173018913F1
:1009200002C0F1100BC010926F0180E18093700142
:1009300081E58093710110927201B5DD68EE73E07C
:1009400080E090E06BDC1092190188E82EDC38E042
:10095000F32E10E000E088E828DC080F191F9BDB6D
:10096000FA94F110F8CF93E0169507959A95E1F770
:10097000B80190E080E0CED120E030EC4FE754E4C5
:1009800061D123E333E343E550E47AD29B01AC0128
:10099000F1D04B015C0187E808DC28E0F22E10E082
:1009A00000E087E802DC080F191F75DBFA94F110EC
:1009B000F8CF83E0169507958A95E1F7B80190E0A6
:1009C00080E0A8D120E030EC4FE754E43BD123E3B2
:1009D00033E343E550E454D29B01AC01CBD06B012F
:1009E0007C0120E030E040E850E4C501B40144D28D
:1009F00018160CF058C02DEC3CEC4CE250E4C7014A
:100A0000B6011CD187FF4FC0F9DC81E027DD1FEF65
:100A100001E380916E01882379F080915D0182303D
:100A200009F47AC008F058C0882309F464C0813002
:100A300009F46FC010926E0180911A01882349F366
:100A400060E083E07FDB62E370E080E090E0E6DB83
:100A500060E08AE077DB62E370E080E090E0DEDB7C
:100A600061E080E06FDB62E370E080E090E0D6DB85
:100A700095B12F982AB15398579A3CB16398679AC9
:100A800040917000809170008D658093700085B7F3
:100A900005BF889585BF409370003CB92AB995B9C8
:100AA00010921A01B6CF20E030E040E850E4C501D2
:100AB000B401C4D087FF0BC02DEC3CEC4CE250E4F9
:100AC000C701B601D9D1181614F4B0DC9ECF8091BD
:100AD0007201811199CFF9CF833051F1843009F03F
:100AE000A9CF80916E01813049F580917201811109
:100AF00028C09CDC23C080916E01823009F09ACF1F
:100B000080915E018F7780937101CDDC80E0A6DC5F
:100B100091CF80916E018ECF80916E01823009F06D
:100B200089CF80915E01817080937201BCDC82CF9D
:100B300080916E01813011F480931A0110935D0150
:100B400079CF5CDCFBCFE199FECF9FBB8EBBE09AF7
:100B500099278DB30895262FE199FECF1CBA9FBB2C
:100B60008EBB2DBB0FB6F894E29AE19A0FBE0196A8
:100B700008955058BB27AA270ED044C135D130F074
:100B80003AD120F031F49F3F11F41EF42AC10EF443
:100B9000E095E7FB20C1E92F46D180F3BA17620741
:100BA00073078407950718F071F49EF55EC10EF483
:100BB000E0950B2EBA2FA02D0B01B90190010C016D
:100BC000CA01A0011124FF27591B99F0593F50F485
:100BD000503E68F11A16F040A22F232F342F4427DD
:100BE000585FF3CF469537952795A795F0405395D5
:100BF000C9F77EF41F16BA0B620B730B840BBAF0A5
:100C00009150A1F0FF0FBB1F661F771F881FC2F70F
:100C10000EC0BA0F621F731F841F48F48795779523
:100C20006795B795F7959E3F08F0B3CF9395880FDA
:100C300008F09927EE0F979587950895A8D008F4A6
:100C400081E008950CD0DEC0D6D040F0CDD030F099
:100C500021F45F3F19F0BFC0511108C1C2C0E3D0F9
:100C600098F39923C9F35523B1F3951B550BBB2773
:100C7000AA2762177307840738F09F5F5F4F220F20
:100C8000331F441FAA1FA9F333D00E2E3AF0E0E819
:100C900030D091505040E695001CCAF729D0FE2F65
:100CA00027D0660F771F881FBB1F261737074807F7
:100CB000AB07B0E809F0BB0B802DBF01FF279358AD
:100CC0005F4F2AF09E3F510568F085C0CFC05F3F5F
:100CD000ECF3983EDCF3869577956795B795F79595
:100CE0009F5FC9F7880F911D9695879597F908958D
:100CF000E1E0660F771F881FBB1F62177307840729
:100D0000BA0720F0621B730B840BBA0BEE1F88F737
:100D1000E0950895E89409C097FB3EF4909580957E
:100D2000709561957F4F8F4F9F4F9923A9F0F92FB1
:100D300096E9BB279395F695879577956795B7952F
:100D4000F111F8CFFAF4BB0F11F460FF1BC06F5F15
:100D50007F4F8F4F9F4F16C0882311F096E911C027
:100D6000772321F09EE8872F762F05C0662371F048
:100D700096E8862F70E060E02AF09A95660F771F5C
:100D8000881FDAF7880F9695879597F90895990F38
:100D90000008550FAA0BE0E8FEEF16161706E80745
:100DA000F907C0F012161306E407F50798F0621B66
:100DB000730B840B950B39F40A2661F0232B242B3B
:100DC000252B21F408950A2609F4A140A6958FEF5A
:100DD000811D811D089597F99F6780E870E060E0AC
:100DE00008959FEF80EC089500240A9416161706C4
:100DF00018060906089500240A941216130614060C
:100E000005060895092E0394000C11F4882352F06E
:100E1000BB0F40F4BF2B11F460FF04C06F5F7F4F26
:100E20008F4F9F4F089557FD9058440F551F59F00D
:100E30005F3F71F04795880F97FB991F61F09F3FC7
:100E400079F087950895121613061406551FF2CFF0
:100E50004695F1DF08C0161617061806991FF1CF40
:100E600086957105610508940895E894BB27662767
:100E70007727CB0197F908958ADF08F48FEF08955B
:100E80000AD0C0CFB1DF28F0B6DF18F0952309F003
:100E9000A2CFA7CFEBCFC7DFA8F39923D9F3552370
:100EA000C9F3950F50E0551FAA27EE27FF27BB2750
:100EB00000240894679520F4E20FF31FB41F0A1E64
:100EC000220F331F441FAA1F6695A9F7779530F4A8
:100ED000F30FB41F0A1E121E08F46395330F441F4C
:100EE000AA1F221F769599F7879520F4B40F0A1E42
:100EF000121E631F440FAA1F221F331F8695A9F7D6
:100F0000862F712D602D11249F5750408AF0E1F0FB
:100F100088234AF0EE0FFF1FBB1F661F771F881F35
:100F200091505040A9F79E3F510570F054CF9ECF8D
:100F30005F3FECF3983EDCF3869577956795B79520
:100F4000F795E7959F5FC1F7FE2B880F911D96954A
:100F5000879597F90895EE0FFF1F0590F491E02D06
:060F60000994F894FFCF94
:100F66000000000068013801B0019601810180018E
:00000001FF
